{
    "abi": [
        {
            "type": "constructor",
            "inputs": [
                {
                    "name": "_name",
                    "type": "string",
                    "internalType": "string"
                },
                {
                    "name": "_paperUri",
                    "type": "string",
                    "internalType": "string"
                },
                {
                    "name": "_topic",
                    "type": "string",
                    "internalType": "string"
                },
                {
                    "name": "_owner",
                    "type": "address",
                    "internalType": "address"
                }
            ],
            "stateMutability": "nonpayable"
        },
        {
            "type": "fallback",
            "stateMutability": "payable"
        },
        {
            "type": "receive",
            "stateMutability": "payable"
        },
        {
            "type": "function",
            "name": "addFeedback",
            "inputs": [
                {
                    "name": "feedback",
                    "type": "string",
                    "internalType": "string"
                }
            ],
            "outputs": [],
            "stateMutability": "nonpayable"
        },
        {
            "type": "function",
            "name": "addMentor",
            "inputs": [
                {
                    "name": "mentorName",
                    "type": "string",
                    "internalType": "string"
                },
                {
                    "name": "mentorAddress",
                    "type": "address",
                    "internalType": "address"
                }
            ],
            "outputs": [],
            "stateMutability": "payable"
        },
        {
            "type": "function",
            "name": "addProgress",
            "inputs": [
                {
                    "name": "content",
                    "type": "string",
                    "internalType": "string"
                }
            ],
            "outputs": [],
            "stateMutability": "nonpayable"
        },
        {
            "type": "function",
            "name": "feedbacks",
            "inputs": [
                {
                    "name": "",
                    "type": "uint256",
                    "internalType": "uint256"
                }
            ],
            "outputs": [
                {
                    "name": "",
                    "type": "string",
                    "internalType": "string"
                }
            ],
            "stateMutability": "view"
        },
        {
            "type": "function",
            "name": "fund",
            "inputs": [],
            "outputs": [],
            "stateMutability": "payable"
        },
        {
            "type": "function",
            "name": "getAllMentors",
            "inputs": [],
            "outputs": [
                {
                    "name": "",
                    "type": "tuple[]",
                    "internalType": "struct Project.Mentor[]",
                    "components": [
                        {
                            "name": "_address",
                            "type": "address",
                            "internalType": "address"
                        },
                        {
                            "name": "_name",
                            "type": "string",
                            "internalType": "string"
                        }
                    ]
                }
            ],
            "stateMutability": "view"
        },
        {
            "type": "function",
            "name": "mentors",
            "inputs": [
                {
                    "name": "",
                    "type": "uint256",
                    "internalType": "uint256"
                }
            ],
            "outputs": [
                {
                    "name": "_address",
                    "type": "address",
                    "internalType": "address"
                },
                {
                    "name": "_name",
                    "type": "string",
                    "internalType": "string"
                }
            ],
            "stateMutability": "view"
        },
        {
            "type": "function",
            "name": "name",
            "inputs": [],
            "outputs": [
                {
                    "name": "",
                    "type": "string",
                    "internalType": "string"
                }
            ],
            "stateMutability": "view"
        },
        {
            "type": "function",
            "name": "owner",
            "inputs": [],
            "outputs": [
                {
                    "name": "",
                    "type": "address",
                    "internalType": "address"
                }
            ],
            "stateMutability": "view"
        },
        {
            "type": "function",
            "name": "paperUri",
            "inputs": [],
            "outputs": [
                {
                    "name": "",
                    "type": "string",
                    "internalType": "string"
                }
            ],
            "stateMutability": "view"
        },
        {
            "type": "function",
            "name": "progressReports",
            "inputs": [
                {
                    "name": "",
                    "type": "uint256",
                    "internalType": "uint256"
                }
            ],
            "outputs": [
                {
                    "name": "content",
                    "type": "string",
                    "internalType": "string"
                },
                {
                    "name": "timestamp",
                    "type": "uint256",
                    "internalType": "uint256"
                }
            ],
            "stateMutability": "view"
        },
        {
            "type": "function",
            "name": "topic",
            "inputs": [],
            "outputs": [
                {
                    "name": "",
                    "type": "string",
                    "internalType": "string"
                }
            ],
            "stateMutability": "view"
        },
        {
            "type": "function",
            "name": "withdrawAmount",
            "inputs": [
                {
                    "name": "amount",
                    "type": "uint256",
                    "internalType": "uint256"
                }
            ],
            "outputs": [],
            "stateMutability": "nonpayable"
        },
        {
            "type": "event",
            "name": "AmountWithdrawn",
            "inputs": [
                {
                    "name": "amount",
                    "type": "uint256",
                    "indexed": false,
                    "internalType": "uint256"
                }
            ],
            "anonymous": false
        },
        {
            "type": "event",
            "name": "FundingReceived",
            "inputs": [
                {
                    "name": "amount",
                    "type": "uint256",
                    "indexed": false,
                    "internalType": "uint256"
                },
                {
                    "name": "funder",
                    "type": "address",
                    "indexed": true,
                    "internalType": "address"
                }
            ],
            "anonymous": false
        },
        {
            "type": "event",
            "name": "MentorAdded",
            "inputs": [
                {
                    "name": "",
                    "type": "address",
                    "indexed": true,
                    "internalType": "address"
                }
            ],
            "anonymous": false
        }
    ],
    "bytecode": {
        "object": "0x60a060405234801561001057600080fd5b5060405161138938038061138983398101604081905261002f91610125565b600061003b8582610264565b5060016100488482610264565b506001600160a01b03811660805260026100628382610264565b5050505050610322565b634e487b7160e01b600052604160045260246000fd5b600082601f83011261009357600080fd5b81516001600160401b038111156100ac576100ac61006c565b604051601f8201601f19908116603f011681016001600160401b03811182821017156100da576100da61006c565b6040528181528382016020018510156100f257600080fd5b60005b82811015610111576020818601810151838301820152016100f5565b506000918101602001919091529392505050565b6000806000806080858703121561013b57600080fd5b84516001600160401b0381111561015157600080fd5b61015d87828801610082565b602087015190955090506001600160401b0381111561017b57600080fd5b61018787828801610082565b604087015190945090506001600160401b038111156101a557600080fd5b6101b187828801610082565b606087015190935090506001600160a01b03811681146101d057600080fd5b939692955090935050565b600181811c908216806101ef57607f821691505b60208210810361020f57634e487b7160e01b600052602260045260246000fd5b50919050565b601f82111561025f57806000526020600020601f840160051c8101602085101561023c5750805b601f840160051c820191505b8181101561025c5760008155600101610248565b50505b505050565b81516001600160401b0381111561027d5761027d61006c565b6102918161028b84546101db565b84610215565b6020601f8211600181146102c557600083156102ad5750848201515b600019600385901b1c1916600184901b17845561025c565b600084815260208120601f198516915b828110156102f557878501518255602094850194600190920191016102d5565b50848210156103135786840151600019600387901b60f8161c191681555b50505050600190811b01905550565b60805161103e61034b6000396000818161018b0152818161050d01526105cf015261103e6000f3fe6080604052600436106100bd5760003560e01c80638da5cb5b11610079578063c12d51ad11610056578063c12d51ad146101e2578063c998c2c514610202578063da7d671e14610230578063f171b8591461025e57005b80638da5cb5b14610179578063b60d4288146101c5578063bf63a577146101cd57005b806302e34182146100c65780630562b9f7146100d957806306fdde03146100f95780630c107357146101245780632bb8b0dc1461013957806354d7c3661461015957005b366100c457005b005b6100c46100d4366004610bb5565b610280565b3480156100e557600080fd5b506100c46100f4366004610c47565b61050b565b34801561010557600080fd5b5061010e6106b8565b60405161011b9190610ca6565b60405180910390f35b34801561013057600080fd5b5061010e610746565b34801561014557600080fd5b5061010e610154366004610c47565b610753565b34801561016557600080fd5b506100c4610174366004610cd6565b61076c565b34801561018557600080fd5b506101ad7f000000000000000000000000000000000000000000000000000000000000000081565b6040516001600160a01b03909116815260200161011b565b6100c4610793565b3480156101d957600080fd5b5061010e6108a6565b3480156101ee57600080fd5b506100c46101fd366004610cd6565b6108b3565b34801561020e57600080fd5b5061022261021d366004610c47565b610901565b60405161011b929190610d8f565b34801561023c57600080fd5b5061025061024b366004610c47565b6109a5565b60405161011b929190610db1565b34801561026a57600080fd5b50610273610a54565b60405161011b9190610ddd565b6601c6bf5263400034116102d75760405162461bcd60e51b8152602060048201526019602482015278056616c7565206d757374206265206d6f7265207468616e203603c1b60448201526064015b60405180910390fd5b6000306102eb6601c6bf5263400034610e78565b604051600081818185875af1925050503d8060008114610327576040519150601f19603f3d011682016040523d82523d6000602084013e61032c565b606091505b50509050806103735760405162461bcd60e51b8152602060048201526013602482015272151c985b9cd858dd1a5bdb9cc811985a5b1959606a1b60448201526064016102ce565b604051600090734ca7e449c8d237f3e0235cf07173a79d93d9ccfc906601c6bf52634000908381818185875af1925050503d80600081146103d0576040519150601f19603f3d011682016040523d82523d6000602084013e6103d5565b606091505b505090508061041c5760405162461bcd60e51b8152602060048201526013602482015272151c985b9cd858dd1a5bdb9cc811985a5b1959606a1b60448201526064016102ce565b60006040518060400160405280856001600160a01b0316815260200187878080601f016020809104026020016040519081016040528093929190818152602001838380828437600092018290525093909452505060068054939450849360059350908261048883610e91565b909155508152602080820192909252604001600020825181546001600160a01b0319166001600160a01b039091161781559082015160018201906104cc9082610f33565b50506040516001600160a01b03861691507f4df3f3208bfbe9457b85364190a65e66a3e7a7cded1cf16b59627bc99bad5db990600090a2505050505050565b7f00000000000000000000000000000000000000000000000000000000000000006001600160a01b031633146105835760405162461bcd60e51b815260206004820152601760248201527f4f6e6c79206f776e65722063616e20776974686472617700000000000000000060448201526064016102ce565b80804710156105cb5760405162461bcd60e51b8152602060048201526014602482015273496e73756666696369656e742062616c616e636560601b60448201526064016102ce565b60007f00000000000000000000000000000000000000000000000000000000000000006001600160a01b03168360405160006040518083038185875af1925050503d8060008114610638576040519150601f19603f3d011682016040523d82523d6000602084013e61063d565b606091505b50509050806106805760405162461bcd60e51b815260206004820152600f60248201526e15da5d1a191c985dc811985a5b1959608a1b60448201526064016102ce565b6040518381527f3e92aa4db3477ddd7c90d0ded7b985612c042e99cdeed9408343c650bdda73b99060200160405180910390a1505050565b600080546106c590610eaa565b80601f01602080910402602001604051908101604052809291908181526020018280546106f190610eaa565b801561073e5780601f106107135761010080835404028352916020019161073e565b820191906000526020600020905b81548152906001019060200180831161072157829003601f168201915b505050505081565b600180546106c590610eaa565b600360205260009081526040902080546106c590610eaa565b6004805460018101909155600090815260036020526040902061078f8282610f33565b5050565b600034116107df5760405162461bcd60e51b8152602060048201526019602482015278056616c7565206d757374206265206d6f7265207468616e203603c1b60448201526064016102ce565b604051600090309034908381818185875af1925050503d8060008114610821576040519150601f19603f3d011682016040523d82523d6000602084013e610826565b606091505b505090508061086e5760405162461bcd60e51b81526020600482015260146024820152734661696c656420746f2073656e642066756e647360601b60448201526064016102ce565b60405134815233907f39c1505ede968a62be4c7e53d17f259021f2ff3e92b10bd0824037347813cb2f9060200160405180910390a250565b600280546106c590610eaa565b6040805180820182528281524260208083019190915260088054600181019091556000908152600790915291909120815181906108f09082610f33565b506020820151816001015590505050565b60076020526000908152604090208054819061091c90610eaa565b80601f016020809104026020016040519081016040528092919081815260200182805461094890610eaa565b80156109955780601f1061096a57610100808354040283529160200191610995565b820191906000526020600020905b81548152906001019060200180831161097857829003601f168201915b5050505050908060010154905082565b600560205260009081526040902080546001820180546001600160a01b0390921692916109d190610eaa565b80601f01602080910402602001604051908101604052809291908181526020018280546109fd90610eaa565b8015610a4a5780601f10610a1f57610100808354040283529160200191610a4a565b820191906000526020600020905b815481529060010190602001808311610a2d57829003601f168201915b5050505050905082565b6060600060065467ffffffffffffffff811115610a7357610a73610cc0565b604051908082528060200260200182016040528015610ab957816020015b604080518082019091526000815260606020820152815260200190600190039081610a915790505b5060065490915060005b81811015610bad57600081815260056020908152604091829020825180840190935280546001600160a01b031683526001810180549192840191610b0690610eaa565b80601f0160208091040260200160405190810160405280929190818152602001828054610b3290610eaa565b8015610b7f5780601f10610b5457610100808354040283529160200191610b7f565b820191906000526020600020905b815481529060010190602001808311610b6257829003601f168201915b505050505081525050838281518110610b9a57610b9a610ff2565b6020908102919091010152600101610ac3565b509092915050565b600080600060408486031215610bca57600080fd5b833567ffffffffffffffff811115610be157600080fd5b8401601f81018613610bf257600080fd5b803567ffffffffffffffff811115610c0957600080fd5b866020828401011115610c1b57600080fd5b6020918201945092508401356001600160a01b0381168114610c3c57600080fd5b809150509250925092565b600060208284031215610c5957600080fd5b5035919050565b6000815180845260005b81811015610c8657602081850181015186830182015201610c6a565b506000602082860101526020601f19601f83011685010191505092915050565b602081526000610cb96020830184610c60565b9392505050565b634e487b7160e01b600052604160045260246000fd5b600060208284031215610ce857600080fd5b813567ffffffffffffffff811115610cff57600080fd5b8201601f81018413610d1057600080fd5b803567ffffffffffffffff811115610d2a57610d2a610cc0565b604051601f8201601f19908116603f0116810167ffffffffffffffff81118282101715610d5957610d59610cc0565b604052818152828201602001861015610d7157600080fd5b81602084016020830137600091810160200191909152949350505050565b604081526000610da26040830185610c60565b90508260208301529392505050565b6001600160a01b0383168152604060208201819052600090610dd590830184610c60565b949350505050565b6000602082016020835280845180835260408501915060408160051b86010192506020860160005b82811015610e5657868503603f19018452815180516001600160a01b03168652602090810151604091870182905290610e4090870182610c60565b9550506020938401939190910190600101610e05565b50929695505050505050565b634e487b7160e01b600052601160045260246000fd5b81810381811115610e8b57610e8b610e62565b92915050565b600060018201610ea357610ea3610e62565b5060010190565b600181811c90821680610ebe57607f821691505b602082108103610ede57634e487b7160e01b600052602260045260246000fd5b50919050565b601f821115610f2e57806000526020600020601f840160051c81016020851015610f0b5750805b601f840160051c820191505b81811015610f2b5760008155600101610f17565b50505b505050565b815167ffffffffffffffff811115610f4d57610f4d610cc0565b610f6181610f5b8454610eaa565b84610ee4565b6020601f821160018114610f955760008315610f7d5750848201515b600019600385901b1c1916600184901b178455610f2b565b600084815260208120601f198516915b82811015610fc55787850151825560209485019460019092019101610fa5565b5084821015610fe35786840151600019600387901b60f8161c191681555b50505050600190811b01905550565b634e487b7160e01b600052603260045260246000fdfea2646970667358221220466443fe7ea6bf715532c30f6f233e28e5d6e83c65c2803b29f53fed710e048864736f6c634300081a0033",
        "linkReferences": {}
    },
    "methodIdentifiers": {
        "addFeedback(string)": "54d7c366",
        "addMentor(string,address)": "02e34182",
        "addProgress(string)": "c12d51ad",
        "feedbacks(uint256)": "2bb8b0dc",
        "fund()": "b60d4288",
        "getAllMentors()": "f171b859",
        "mentors(uint256)": "da7d671e",
        "name()": "06fdde03",
        "owner()": "8da5cb5b",
        "paperUri()": "0c107357",
        "progressReports(uint256)": "c998c2c5",
        "topic()": "bf63a577",
        "withdrawAmount(uint256)": "0562b9f7"
    },
    "id": 23
}