{
	"abi": [
		{
			"type": "constructor",
			"inputs": [
				{
					"name": "_name",
					"type": "string",
					"internalType": "string"
				},
				{
					"name": "_paperUri",
					"type": "string",
					"internalType": "string"
				},
				{
					"name": "_topic",
					"type": "string",
					"internalType": "string"
				},
				{
					"name": "_owner",
					"type": "address",
					"internalType": "address"
				}
			],
			"stateMutability": "nonpayable"
		},
		{
			"type": "fallback",
			"stateMutability": "payable"
		},
		{
			"type": "receive",
			"stateMutability": "payable"
		},
		{
			"type": "function",
			"name": "addFeedback",
			"inputs": [
				{
					"name": "feedback",
					"type": "string",
					"internalType": "string"
				}
			],
			"outputs": [],
			"stateMutability": "nonpayable"
		},
		{
			"type": "function",
			"name": "addMentor",
			"inputs": [
				{
					"name": "mentorName",
					"type": "string",
					"internalType": "string"
				},
				{
					"name": "mentorAddress",
					"type": "address",
					"internalType": "address"
				}
			],
			"outputs": [],
			"stateMutability": "payable"
		},
		{
			"type": "function",
			"name": "addProgress",
			"inputs": [
				{
					"name": "content",
					"type": "string",
					"internalType": "string"
				}
			],
			"outputs": [],
			"stateMutability": "nonpayable"
		},
		{
			"type": "function",
			"name": "feedbacks",
			"inputs": [
				{
					"name": "",
					"type": "uint256",
					"internalType": "uint256"
				}
			],
			"outputs": [
				{
					"name": "",
					"type": "string",
					"internalType": "string"
				}
			],
			"stateMutability": "view"
		},
		{
			"type": "function",
			"name": "fund",
			"inputs": [],
			"outputs": [],
			"stateMutability": "payable"
		},
		{
			"type": "function",
			"name": "getAllMentors",
			"inputs": [],
			"outputs": [
				{
					"name": "",
					"type": "tuple[]",
					"internalType": "struct Project.Mentor[]",
					"components": [
						{
							"name": "_address",
							"type": "address",
							"internalType": "address"
						},
						{
							"name": "_name",
							"type": "string",
							"internalType": "string"
						}
					]
				}
			],
			"stateMutability": "view"
		},
		{
			"type": "function",
			"name": "mentors",
			"inputs": [
				{
					"name": "",
					"type": "uint256",
					"internalType": "uint256"
				}
			],
			"outputs": [
				{
					"name": "_address",
					"type": "address",
					"internalType": "address"
				},
				{
					"name": "_name",
					"type": "string",
					"internalType": "string"
				}
			],
			"stateMutability": "view"
		},
		{
			"type": "function",
			"name": "name",
			"inputs": [],
			"outputs": [
				{
					"name": "",
					"type": "string",
					"internalType": "string"
				}
			],
			"stateMutability": "view"
		},
		{
			"type": "function",
			"name": "paperUri",
			"inputs": [],
			"outputs": [
				{
					"name": "",
					"type": "string",
					"internalType": "string"
				}
			],
			"stateMutability": "view"
		},
		{
			"type": "function",
			"name": "progressReports",
			"inputs": [
				{
					"name": "",
					"type": "uint256",
					"internalType": "uint256"
				}
			],
			"outputs": [
				{
					"name": "content",
					"type": "string",
					"internalType": "string"
				},
				{
					"name": "timestamp",
					"type": "uint256",
					"internalType": "uint256"
				}
			],
			"stateMutability": "view"
		},
		{
			"type": "function",
			"name": "topic",
			"inputs": [],
			"outputs": [
				{
					"name": "",
					"type": "string",
					"internalType": "string"
				}
			],
			"stateMutability": "view"
		},
		{
			"type": "function",
			"name": "withdrawAmount",
			"inputs": [
				{
					"name": "amount",
					"type": "uint256",
					"internalType": "uint256"
				}
			],
			"outputs": [],
			"stateMutability": "nonpayable"
		},
		{
			"type": "event",
			"name": "AmountWithdrawn",
			"inputs": [
				{
					"name": "amount",
					"type": "uint256",
					"indexed": false,
					"internalType": "uint256"
				}
			],
			"anonymous": false
		},
		{
			"type": "event",
			"name": "FundingReceived",
			"inputs": [
				{
					"name": "amount",
					"type": "uint256",
					"indexed": false,
					"internalType": "uint256"
				},
				{
					"name": "funder",
					"type": "address",
					"indexed": true,
					"internalType": "address"
				}
			],
			"anonymous": false
		},
		{
			"type": "event",
			"name": "MentorAdded",
			"inputs": [
				{
					"name": "",
					"type": "address",
					"indexed": true,
					"internalType": "address"
				}
			],
			"anonymous": false
		}
	],
	"bytecode": {
		"object": "0x60a060405234801561001057600080fd5b5060405161127b38038061127b83398101604081905261002f91610125565b600061003b8582610264565b5060016100488482610264565b506001600160a01b03811660805260026100628382610264565b5050505050610322565b634e487b7160e01b600052604160045260246000fd5b600082601f83011261009357600080fd5b81516001600160401b038111156100ac576100ac61006c565b604051601f8201601f19908116603f011681016001600160401b03811182821017156100da576100da61006c565b6040528181528382016020018510156100f257600080fd5b60005b82811015610111576020818601810151838301820152016100f5565b506000918101602001919091529392505050565b6000806000806080858703121561013b57600080fd5b84516001600160401b0381111561015157600080fd5b61015d87828801610082565b602087015190955090506001600160401b0381111561017b57600080fd5b61018787828801610082565b604087015190945090506001600160401b038111156101a557600080fd5b6101b187828801610082565b606087015190935090506001600160a01b03811681146101d057600080fd5b939692955090935050565b600181811c908216806101ef57607f821691505b60208210810361020f57634e487b7160e01b600052602260045260246000fd5b50919050565b601f82111561025f57806000526020600020601f840160051c8101602085101561023c5750805b601f840160051c820191505b8181101561025c5760008155600101610248565b50505b505050565b81516001600160401b0381111561027d5761027d61006c565b6102918161028b84546101db565b84610215565b6020601f8211600181146102c557600083156102ad5750848201515b600019600385901b1c1916600184901b17845561025c565b600084815260208120601f198516915b828110156102f557878501518255602094850194600190920191016102d5565b50848210156103135786840151600019600387901b60f8161c191681555b50505050600190811b01905550565b608051610f37610344600039600081816104a9015261056b0152610f376000f3fe6080604052600436106100a55760003560e01c8063b60d428811610061578063b60d428814610161578063bf63a57714610169578063c12d51ad1461017e578063c998c2c51461019e578063da7d671e146101cc578063f171b859146101fa57005b806302e34182146100ae5780630562b9f7146100c157806306fdde03146100e15780630c1073571461010c5780632bb8b0dc1461012157806354d7c3661461014157005b366100ac57005b005b6100ac6100bc366004610aae565b61021c565b3480156100cd57600080fd5b506100ac6100dc366004610b40565b6104a7565b3480156100ed57600080fd5b506100f6610654565b6040516101039190610b9f565b60405180910390f35b34801561011857600080fd5b506100f66106e2565b34801561012d57600080fd5b506100f661013c366004610b40565b6106ef565b34801561014d57600080fd5b506100ac61015c366004610bcf565b610708565b6100ac61072f565b34801561017557600080fd5b506100f6610842565b34801561018a57600080fd5b506100ac610199366004610bcf565b61084f565b3480156101aa57600080fd5b506101be6101b9366004610b40565b61089d565b604051610103929190610c88565b3480156101d857600080fd5b506101ec6101e7366004610b40565b610941565b604051610103929190610caa565b34801561020657600080fd5b5061020f6109f0565b6040516101039190610cd6565b6601c6bf5263400034116102735760405162461bcd60e51b8152602060048201526019602482015278056616c7565206d757374206265206d6f7265207468616e203603c1b60448201526064015b60405180910390fd5b6000306102876601c6bf5263400034610d71565b604051600081818185875af1925050503d80600081146102c3576040519150601f19603f3d011682016040523d82523d6000602084013e6102c8565b606091505b505090508061030f5760405162461bcd60e51b8152602060048201526013602482015272151c985b9cd858dd1a5bdb9cc811985a5b1959606a1b604482015260640161026a565b604051600090734ca7e449c8d237f3e0235cf07173a79d93d9ccfc906601c6bf52634000908381818185875af1925050503d806000811461036c576040519150601f19603f3d011682016040523d82523d6000602084013e610371565b606091505b50509050806103b85760405162461bcd60e51b8152602060048201526013602482015272151c985b9cd858dd1a5bdb9cc811985a5b1959606a1b604482015260640161026a565b60006040518060400160405280856001600160a01b0316815260200187878080601f016020809104026020016040519081016040528093929190818152602001838380828437600092018290525093909452505060068054939450849360059350908261042483610d8a565b909155508152602080820192909252604001600020825181546001600160a01b0319166001600160a01b039091161781559082015160018201906104689082610e2c565b50506040516001600160a01b03861691507f4df3f3208bfbe9457b85364190a65e66a3e7a7cded1cf16b59627bc99bad5db990600090a2505050505050565b7f00000000000000000000000000000000000000000000000000000000000000006001600160a01b0316331461051f5760405162461bcd60e51b815260206004820152601760248201527f4f6e6c79206f776e65722063616e207769746864726177000000000000000000604482015260640161026a565b80804710156105675760405162461bcd60e51b8152602060048201526014602482015273496e73756666696369656e742062616c616e636560601b604482015260640161026a565b60007f00000000000000000000000000000000000000000000000000000000000000006001600160a01b03168360405160006040518083038185875af1925050503d80600081146105d4576040519150601f19603f3d011682016040523d82523d6000602084013e6105d9565b606091505b505090508061061c5760405162461bcd60e51b815260206004820152600f60248201526e15da5d1a191c985dc811985a5b1959608a1b604482015260640161026a565b6040518381527f3e92aa4db3477ddd7c90d0ded7b985612c042e99cdeed9408343c650bdda73b99060200160405180910390a1505050565b6000805461066190610da3565b80601f016020809104026020016040519081016040528092919081815260200182805461068d90610da3565b80156106da5780601f106106af576101008083540402835291602001916106da565b820191906000526020600020905b8154815290600101906020018083116106bd57829003601f168201915b505050505081565b6001805461066190610da3565b6003602052600090815260409020805461066190610da3565b6004805460018101909155600090815260036020526040902061072b8282610e2c565b5050565b6000341161077b5760405162461bcd60e51b8152602060048201526019602482015278056616c7565206d757374206265206d6f7265207468616e203603c1b604482015260640161026a565b604051600090309034908381818185875af1925050503d80600081146107bd576040519150601f19603f3d011682016040523d82523d6000602084013e6107c2565b606091505b505090508061080a5760405162461bcd60e51b81526020600482015260146024820152734661696c656420746f2073656e642066756e647360601b604482015260640161026a565b60405134815233907f39c1505ede968a62be4c7e53d17f259021f2ff3e92b10bd0824037347813cb2f9060200160405180910390a250565b6002805461066190610da3565b60408051808201825282815242602080830191909152600880546001810190915560009081526007909152919091208151819061088c9082610e2c565b506020820151816001015590505050565b6007602052600090815260409020805481906108b890610da3565b80601f01602080910402602001604051908101604052809291908181526020018280546108e490610da3565b80156109315780601f1061090657610100808354040283529160200191610931565b820191906000526020600020905b81548152906001019060200180831161091457829003601f168201915b5050505050908060010154905082565b600560205260009081526040902080546001820180546001600160a01b03909216929161096d90610da3565b80601f016020809104026020016040519081016040528092919081815260200182805461099990610da3565b80156109e65780601f106109bb576101008083540402835291602001916109e6565b820191906000526020600020905b8154815290600101906020018083116109c957829003601f168201915b5050505050905082565b6060600060065467ffffffffffffffff811115610a0f57610a0f610bb9565b604051908082528060200260200182016040528015610a5557816020015b604080518082019091526000815260606020820152815260200190600190039081610a2d5790505b5060065490915060005b81811015610aa657828181518110610a7957610a79610eeb565b6020026020010151838281518110610a9357610a93610eeb565b6020908102919091010152600101610a5f565b509092915050565b600080600060408486031215610ac357600080fd5b833567ffffffffffffffff811115610ada57600080fd5b8401601f81018613610aeb57600080fd5b803567ffffffffffffffff811115610b0257600080fd5b866020828401011115610b1457600080fd5b6020918201945092508401356001600160a01b0381168114610b3557600080fd5b809150509250925092565b600060208284031215610b5257600080fd5b5035919050565b6000815180845260005b81811015610b7f57602081850181015186830182015201610b63565b506000602082860101526020601f19601f83011685010191505092915050565b602081526000610bb26020830184610b59565b9392505050565b634e487b7160e01b600052604160045260246000fd5b600060208284031215610be157600080fd5b813567ffffffffffffffff811115610bf857600080fd5b8201601f81018413610c0957600080fd5b803567ffffffffffffffff811115610c2357610c23610bb9565b604051601f8201601f19908116603f0116810167ffffffffffffffff81118282101715610c5257610c52610bb9565b604052818152828201602001861015610c6a57600080fd5b81602084016020830137600091810160200191909152949350505050565b604081526000610c9b6040830185610b59565b90508260208301529392505050565b6001600160a01b0383168152604060208201819052600090610cce90830184610b59565b949350505050565b6000602082016020835280845180835260408501915060408160051b86010192506020860160005b82811015610d4f57868503603f19018452815180516001600160a01b03168652602090810151604091870182905290610d3990870182610b59565b9550506020938401939190910190600101610cfe565b50929695505050505050565b634e487b7160e01b600052601160045260246000fd5b81810381811115610d8457610d84610d5b565b92915050565b600060018201610d9c57610d9c610d5b565b5060010190565b600181811c90821680610db757607f821691505b602082108103610dd757634e487b7160e01b600052602260045260246000fd5b50919050565b601f821115610e2757806000526020600020601f840160051c81016020851015610e045750805b601f840160051c820191505b81811015610e245760008155600101610e10565b50505b505050565b815167ffffffffffffffff811115610e4657610e46610bb9565b610e5a81610e548454610da3565b84610ddd565b6020601f821160018114610e8e5760008315610e765750848201515b600019600385901b1c1916600184901b178455610e24565b600084815260208120601f198516915b82811015610ebe5787850151825560209485019460019092019101610e9e565b5084821015610edc5786840151600019600387901b60f8161c191681555b50505050600190811b01905550565b634e487b7160e01b600052603260045260246000fdfea2646970667358221220b43a1774fe2477b8493f4a21a8192f6a6d3b3eac0e1f10f67f2c7e0a12e974cc64736f6c634300081a0033",
		"linkReferences": {}
	},
	"methodIdentifiers": {
		"addFeedback(string)": "54d7c366",
		"addMentor(string,address)": "02e34182",
		"addProgress(string)": "c12d51ad",
		"feedbacks(uint256)": "2bb8b0dc",
		"fund()": "b60d4288",
		"getAllMentors()": "f171b859",
		"mentors(uint256)": "da7d671e",
		"name()": "06fdde03",
		"paperUri()": "0c107357",
		"progressReports(uint256)": "c998c2c5",
		"topic()": "bf63a577",
		"withdrawAmount(uint256)": "0562b9f7"
	},
	"id": 0
}