{
  "abi": [
    {
      "type": "function",
      "name": "createUser",
      "inputs": [
        {
          "name": "_name",
          "type": "string",
          "internalType": "string"
        },
        {
          "name": "_userType",
          "type": "uint8",
          "internalType": "enum Users.Type"
        }
      ],
      "outputs": [],
      "stateMutability": "nonpayable"
    },
    {
      "type": "function",
      "name": "getAllUsers",
      "inputs": [],
      "outputs": [
        {
          "name": "",
          "type": "tuple[]",
          "internalType": "struct Users.UserType[]",
          "components": [
            {
              "name": "walletAddress",
              "type": "address",
              "internalType": "address"
            },
            {
              "name": "name",
              "type": "string",
              "internalType": "string"
            },
            {
              "name": "userType",
              "type": "uint8",
              "internalType": "enum Users.Type"
            }
          ]
        }
      ],
      "stateMutability": "view"
    },
    {
      "type": "function",
      "name": "getUser",
      "inputs": [
        {
          "name": "_walletAddress",
          "type": "address",
          "internalType": "address"
        }
      ],
      "outputs": [
        {
          "name": "",
          "type": "tuple",
          "internalType": "struct Users.UserType",
          "components": [
            {
              "name": "walletAddress",
              "type": "address",
              "internalType": "address"
            },
            {
              "name": "name",
              "type": "string",
              "internalType": "string"
            },
            {
              "name": "userType",
              "type": "uint8",
              "internalType": "enum Users.Type"
            }
          ]
        }
      ],
      "stateMutability": "view"
    },
    {
      "type": "function",
      "name": "userCount",
      "inputs": [],
      "outputs": [
        {
          "name": "",
          "type": "uint256",
          "internalType": "uint256"
        }
      ],
      "stateMutability": "view"
    },
    {
      "type": "function",
      "name": "users",
      "inputs": [
        {
          "name": "",
          "type": "address",
          "internalType": "address"
        }
      ],
      "outputs": [
        {
          "name": "walletAddress",
          "type": "address",
          "internalType": "address"
        },
        {
          "name": "name",
          "type": "string",
          "internalType": "string"
        },
        {
          "name": "userType",
          "type": "uint8",
          "internalType": "enum Users.Type"
        }
      ],
      "stateMutability": "view"
    },
    {
      "type": "event",
      "name": "UserCreated",
      "inputs": [
        {
          "name": "walletAddress",
          "type": "address",
          "indexed": true,
          "internalType": "address"
        },
        {
          "name": "name",
          "type": "string",
          "indexed": false,
          "internalType": "string"
        },
        {
          "name": "userType",
          "type": "uint8",
          "indexed": false,
          "internalType": "enum Users.Type"
        }
      ],
      "anonymous": false
    }
  ],
  "bytecode": {
    "object": "0x6080604052348015600f57600080fd5b506109f98061001f6000396000f3fe608060405234801561001057600080fd5b50600436106100575760003560e01c806307973ccf1461005c57806346096130146100785780636f77926b1461008d578063a87430ba146100ad578063e2842d79146100cf575b600080fd5b61006560025481565b6040519081526020015b60405180910390f35b61008b6100863660046105db565b6100e4565b005b6100a061009b3660046106a5565b61020e565b60405161006f9190610796565b6100c06100bb3660046106a5565b610311565b60405161006f939291906107a9565b6100d76103c9565b60405161006f91906107e4565b6040518060600160405280336001600160a01b031681526020018381526020018260018111156101165761011661071b565b905233600090815260208181526040909120825181546001600160a01b0319166001600160a01b0390911617815590820151600182019061015790826108cc565b50604082015160028201805460ff19166001838181111561017a5761017a61071b565b02179055505060018054808201825560008290527fb10e2d527612073b26eecdfd717e6a320cf44b4afac2b0732d9fcbe2b7fa0cf60180546001600160a01b03191633908117909155600280549092019091556040519091507f4734c94d88f62c0881093b87207fd9c5d0cbcab7ea0cf7f07370a2952c2f8d6090610202908590859061098b565b60405180910390a25050565b610216610577565b6001600160a01b0380831660009081526020818152604091829020825160608101909352805490931682526001830180549293929184019161025790610849565b80601f016020809104026020016040519081016040528092919081815260200182805461028390610849565b80156102d05780601f106102a5576101008083540402835291602001916102d0565b820191906000526020600020905b8154815290600101906020018083116102b357829003601f168201915b5050509183525050600282015460209091019060ff1660018111156102f7576102f761071b565b60018111156103085761030861071b565b90525092915050565b600060208190529081526040902080546001820180546001600160a01b03909216929161033d90610849565b80601f016020809104026020016040519081016040528092919081815260200182805461036990610849565b80156103b65780601f1061038b576101008083540402835291602001916103b6565b820191906000526020600020905b81548152906001019060200180831161039957829003601f168201915b5050506002909301549192505060ff1683565b6060600060025467ffffffffffffffff8111156103e8576103e86105b1565b60405190808252806020026020018201604052801561042157816020015b61040e610577565b8152602001906001900390816104065790505b50905060005b6002548110156105715760008060018381548110610447576104476109ad565b60009182526020808320909101546001600160a01b039081168452838201949094526040928301909120825160608101909352805490931682526001830180549293929184019161049790610849565b80601f01602080910402602001604051908101604052809291908181526020018280546104c390610849565b80156105105780601f106104e557610100808354040283529160200191610510565b820191906000526020600020905b8154815290600101906020018083116104f357829003601f168201915b5050509183525050600282015460209091019060ff1660018111156105375761053761071b565b60018111156105485761054861071b565b8152505082828151811061055e5761055e6109ad565b6020908102919091010152600101610427565b50919050565b604051806060016040528060006001600160a01b0316815260200160608152602001600060018111156105ac576105ac61071b565b905290565b634e487b7160e01b600052604160045260246000fd5b8035600281106105d657600080fd5b919050565b600080604083850312156105ee57600080fd5b823567ffffffffffffffff81111561060557600080fd5b8301601f8101851361061657600080fd5b803567ffffffffffffffff811115610630576106306105b1565b604051601f8201601f19908116603f0116810167ffffffffffffffff8111828210171561065f5761065f6105b1565b60405281815282820160200187101561067757600080fd5b8160208401602083013760006020838301015280945050505061069c602084016105c7565b90509250929050565b6000602082840312156106b757600080fd5b81356001600160a01b03811681146106ce57600080fd5b9392505050565b6000815180845260005b818110156106fb576020818501810151868301820152016106df565b506000602082860101526020601f19601f83011685010191505092915050565b634e487b7160e01b600052602160045260246000fd5b6002811061074f57634e487b7160e01b600052602160045260246000fd5b9052565b60018060a01b038151168252600060208201516060602085015261077a60608501826106d5565b9050604083015161078e6040860182610731565b509392505050565b6020815260006106ce6020830184610753565b6001600160a01b03841681526060602082018190526000906107cd908301856106d5565b90506107dc6040830184610731565b949350505050565b6000602082016020835280845180835260408501915060408160051b86010192506020860160005b8281101561083d57603f19878603018452610828858351610753565b9450602093840193919091019060010161080c565b50929695505050505050565b600181811c9082168061085d57607f821691505b60208210810361057157634e487b7160e01b600052602260045260246000fd5b601f8211156108c757806000526020600020601f840160051c810160208510156108a45750805b601f840160051c820191505b818110156108c457600081556001016108b0565b50505b505050565b815167ffffffffffffffff8111156108e6576108e66105b1565b6108fa816108f48454610849565b8461087d565b6020601f82116001811461092e57600083156109165750848201515b600019600385901b1c1916600184901b1784556108c4565b600084815260208120601f198516915b8281101561095e578785015182556020948501946001909201910161093e565b508482101561097c5786840151600019600387901b60f8161c191681555b50505050600190811b01905550565b60408152600061099e60408301856106d5565b90506106ce6020830184610731565b634e487b7160e01b600052603260045260246000fdfea26469706673582212204c31e4f1f1814ce4c387216a593af8fea59bafe431cd4b311fdd067998d96e7664736f6c634300081a0033",
    "linkReferences": {}
  },
  "methodIdentifiers": {
    "createUser(string,uint8)": "46096130",
    "getAllUsers()": "e2842d79",
    "getUser(address)": "6f77926b",
    "userCount()": "07973ccf",
    "users(address)": "a87430ba"
  },
  "id": 25
}